{"abi":[{"type":"constructor","inputs":[{"name":"_owner","type":"address","internalType":"address"}],"stateMutability":"nonpayable"},{"type":"receive","stateMutability":"payable"},{"type":"function","name":"createVaultCelo","inputs":[{"name":"_unlockTime","type":"uint256","internalType":"uint256"}],"outputs":[{"name":"newVaultId","type":"uint256","internalType":"uint256"}],"stateMutability":"payable"},{"type":"function","name":"createVaultERC20","inputs":[{"name":"token","type":"address","internalType":"address"},{"name":"amount","type":"uint256","internalType":"uint256"},{"name":"_unlockTime","type":"uint256","internalType":"uint256"}],"outputs":[{"name":"newVaultId","type":"uint256","internalType":"uint256"}],"stateMutability":"nonpayable"},{"type":"function","name":"getVault","inputs":[{"name":"vaultId","type":"uint256","internalType":"uint256"}],"outputs":[{"name":"creator","type":"address","internalType":"address"},{"name":"token","type":"address","internalType":"address"},{"name":"amount","type":"uint256","internalType":"uint256"},{"name":"unlockTime","type":"uint256","internalType":"uint256"},{"name":"withdrawn","type":"bool","internalType":"bool"}],"stateMutability":"view"},{"type":"function","name":"owner","inputs":[],"outputs":[{"name":"","type":"address","internalType":"address"}],"stateMutability":"view"},{"type":"function","name":"userVaults","inputs":[{"name":"user","type":"address","internalType":"address"},{"name":"index","type":"uint256","internalType":"uint256"}],"outputs":[{"name":"","type":"uint256","internalType":"uint256"}],"stateMutability":"view"},{"type":"function","name":"userVaultsLength","inputs":[{"name":"user","type":"address","internalType":"address"}],"outputs":[{"name":"","type":"uint256","internalType":"uint256"}],"stateMutability":"view"},{"type":"function","name":"vaults","inputs":[{"name":"","type":"uint256","internalType":"uint256"}],"outputs":[{"name":"creator","type":"address","internalType":"address"},{"name":"token","type":"address","internalType":"address"},{"name":"amount","type":"uint256","internalType":"uint256"},{"name":"unlockTime","type":"uint256","internalType":"uint256"},{"name":"withdrawn","type":"bool","internalType":"bool"}],"stateMutability":"view"},{"type":"function","name":"withdraw","inputs":[{"name":"vaultId","type":"uint256","internalType":"uint256"}],"outputs":[],"stateMutability":"nonpayable"},{"type":"event","name":"VaultCreated","inputs":[{"name":"vaultId","type":"uint256","indexed":true,"internalType":"uint256"},{"name":"creator","type":"address","indexed":true,"internalType":"address"},{"name":"token","type":"address","indexed":false,"internalType":"address"},{"name":"amount","type":"uint256","indexed":false,"internalType":"uint256"},{"name":"unlockTime","type":"uint256","indexed":false,"internalType":"uint256"}],"anonymous":false},{"type":"event","name":"VaultWithdrawn","inputs":[{"name":"vaultId","type":"uint256","indexed":true,"internalType":"uint256"},{"name":"creator","type":"address","indexed":true,"internalType":"address"}],"anonymous":false}],"bytecode":{"object":"0x60a060405234801561000f575f5ffd5b5060405161167c38038061167c83398181016040528101906100319190610103565b5f73ffffffffffffffffffffffffffffffffffffffff168173ffffffffffffffffffffffffffffffffffffffff161461006a578061006c565b335b73ffffffffffffffffffffffffffffffffffffffff1660808173ffffffffffffffffffffffffffffffffffffffff16815250505061012e565b5f5ffd5b5f73ffffffffffffffffffffffffffffffffffffffff82169050919050565b5f6100d2826100a9565b9050919050565b6100e2816100c8565b81146100ec575f5ffd5b50565b5f815190506100fd816100d9565b92915050565b5f60208284031215610118576101176100a5565b5b5f610125848285016100ef565b91505092915050565b6080516115366101465f395f61093701526115365ff3fe60806040526004361061007e575f3560e01c80638ee95bec1161004d5780638ee95bec146101905780639403b634146101cc578063980ed8911461020c5780639c841fef1461023c576100be565b80630503669b146100c25780632e1a7d4d146100fe5780638c64ea4a146101265780638da5cb5b14610166576100be565b366100be576040517f08c379a00000000000000000000000000000000000000000000000000000000081526004016100b590610d83565b60405180910390fd5b5f5ffd5b3480156100cd575f5ffd5b506100e860048036038101906100e39190610e32565b610278565b6040516100f59190610e91565b60405180910390f35b348015610109575f5ffd5b50610124600480360381019061011f9190610eaa565b610499565b005b348015610131575f5ffd5b5061014c60048036038101906101479190610eaa565b6108b9565b60405161015d959493929190610efe565b60405180910390f35b348015610171575f5ffd5b5061017a610935565b6040516101879190610f4f565b60405180910390f35b34801561019b575f5ffd5b506101b660048036038101906101b19190610f68565b610959565b6040516101c39190610e91565b60405180910390f35b3480156101d7575f5ffd5b506101f260048036038101906101ed9190610eaa565b6109a2565b604051610203959493929190610efe565b60405180910390f35b61022660048036038101906102219190610eaa565b610a31565b6040516102339190610e91565b60405180910390f35b348015610247575f5ffd5b50610262600480360381019061025d9190610f93565b610b21565b60405161026f9190610e91565b60405180910390f35b5f5f73ffffffffffffffffffffffffffffffffffffffff168473ffffffffffffffffffffffffffffffffffffffff16036102e7576040517f08c379a00000000000000000000000000000000000000000000000000000000081526004016102de9061101b565b60405180910390fd5b5f8311610329576040517f08c379a000000000000000000000000000000000000000000000000000000000815260040161032090611083565b60405180910390fd5b42821161036b576040517f08c379a0000000000000000000000000000000000000000000000000000000008152600401610362906110eb565b60405180910390fd5b5f8473ffffffffffffffffffffffffffffffffffffffff166323b872dd3330876040518463ffffffff1660e01b81526004016103a993929190611109565b6020604051808303815f875af11580156103c5573d5f5f3e3d5ffd5b505050506040513d601f19601f820116820180604052508101906103e99190611168565b90508061042b576040517f08c379a0000000000000000000000000000000000000000000000000000000008152600401610422906111dd565b60405180910390fd5b5f61043833878787610b82565b90503373ffffffffffffffffffffffffffffffffffffffff16817f44af6ec22ccd3d0e77902015a78c08beef5480d0afff29d20c929b271ba2dd6e888888604051610485939291906111fb565b60405180910390a380925050509392505050565b5f60015f8381526020019081526020015f2090505f73ffffffffffffffffffffffffffffffffffffffff16815f015f9054906101000a900473ffffffffffffffffffffffffffffffffffffffff1673ffffffffffffffffffffffffffffffffffffffff160361053d576040517f08c379a00000000000000000000000000000000000000000000000000000000081526004016105349061127a565b60405180910390fd5b805f015f9054906101000a900473ffffffffffffffffffffffffffffffffffffffff1673ffffffffffffffffffffffffffffffffffffffff163373ffffffffffffffffffffffffffffffffffffffff16146105cd576040517f08c379a00000000000000000000000000000000000000000000000000000000081526004016105c4906112e2565b60405180910390fd5b8060030154421015610614576040517f08c379a000000000000000000000000000000000000000000000000000000000815260040161060b9061134a565b60405180910390fd5b806004015f9054906101000a900460ff1615610665576040517f08c379a000000000000000000000000000000000000000000000000000000000815260040161065c906113b2565b60405180910390fd5b6001816004015f6101000a81548160ff0219169083151502179055505f73ffffffffffffffffffffffffffffffffffffffff16816001015f9054906101000a900473ffffffffffffffffffffffffffffffffffffffff1673ffffffffffffffffffffffffffffffffffffffff160361074657805f015f9054906101000a900473ffffffffffffffffffffffffffffffffffffffff1673ffffffffffffffffffffffffffffffffffffffff166108fc826002015490811502906040515f60405180830381858888f19350505050158015610740573d5f5f3e3d5ffd5b5061084f565b5f816001015f9054906101000a900473ffffffffffffffffffffffffffffffffffffffff1673ffffffffffffffffffffffffffffffffffffffff1663a9059cbb835f015f9054906101000a900473ffffffffffffffffffffffffffffffffffffffff1684600201546040518363ffffffff1660e01b81526004016107cb9291906113d0565b6020604051808303815f875af11580156107e7573d5f5f3e3d5ffd5b505050506040513d601f19601f8201168201806040525081019061080b9190611168565b90508061084d576040517f08c379a0000000000000000000000000000000000000000000000000000000008152600401610844906111dd565b60405180910390fd5b505b805f015f9054906101000a900473ffffffffffffffffffffffffffffffffffffffff1673ffffffffffffffffffffffffffffffffffffffff16827fc88ee6ec89cca25e3b0e9452f447517e04a1a7412fe877317d8a49413b04b55660405160405180910390a35050565b6001602052805f5260405f205f91509050805f015f9054906101000a900473ffffffffffffffffffffffffffffffffffffffff1690806001015f9054906101000a900473ffffffffffffffffffffffffffffffffffffffff1690806002015490806003015490806004015f9054906101000a900460ff16905085565b7f000000000000000000000000000000000000000000000000000000000000000081565b5f60025f8373ffffffffffffffffffffffffffffffffffffffff1673ffffffffffffffffffffffffffffffffffffffff1681526020019081526020015f20805490509050919050565b5f5f5f5f5f5f60015f8881526020019081526020015f209050805f015f9054906101000a900473ffffffffffffffffffffffffffffffffffffffff16816001015f9054906101000a900473ffffffffffffffffffffffffffffffffffffffff1682600201548360030154846004015f9054906101000a900460ff16955095509550955095505091939590929450565b5f5f3411610a74576040517f08c379a0000000000000000000000000000000000000000000000000000000008152600401610a6b90611441565b60405180910390fd5b428211610ab6576040517f08c379a0000000000000000000000000000000000000000000000000000000008152600401610aad906110eb565b60405180910390fd5b5f610ac3335f3486610b82565b90503373ffffffffffffffffffffffffffffffffffffffff16817f44af6ec22ccd3d0e77902015a78c08beef5480d0afff29d20c929b271ba2dd6e5f3487604051610b10939291906111fb565b60405180910390a380915050919050565b5f60025f8473ffffffffffffffffffffffffffffffffffffffff1673ffffffffffffffffffffffffffffffffffffffff1681526020019081526020015f208281548110610b7157610b7061145f565b5b905f5260205f200154905092915050565b5f5f5f815480929190610b94906114b9565b9190505590506040518060a001604052808673ffffffffffffffffffffffffffffffffffffffff1681526020018573ffffffffffffffffffffffffffffffffffffffff1681526020018481526020018381526020015f151581525060015f8381526020019081526020015f205f820151815f015f6101000a81548173ffffffffffffffffffffffffffffffffffffffff021916908373ffffffffffffffffffffffffffffffffffffffff1602179055506020820151816001015f6101000a81548173ffffffffffffffffffffffffffffffffffffffff021916908373ffffffffffffffffffffffffffffffffffffffff16021790555060408201518160020155606082015181600301556080820151816004015f6101000a81548160ff02191690831515021790555090505060025f8673ffffffffffffffffffffffffffffffffffffffff1673ffffffffffffffffffffffffffffffffffffffff1681526020019081526020015f2081908060018154018082558091505060019003905f5260205f20015f9091909190915055949350505050565b5f82825260208201905092915050565b7f557365206372656174655661756c7443656c6f282900000000000000000000005f82015250565b5f610d6d601583610d29565b9150610d7882610d39565b602082019050919050565b5f6020820190508181035f830152610d9a81610d61565b9050919050565b5f5ffd5b5f73ffffffffffffffffffffffffffffffffffffffff82169050919050565b5f610dce82610da5565b9050919050565b610dde81610dc4565b8114610de8575f5ffd5b50565b5f81359050610df981610dd5565b92915050565b5f819050919050565b610e1181610dff565b8114610e1b575f5ffd5b50565b5f81359050610e2c81610e08565b92915050565b5f5f5f60608486031215610e4957610e48610da1565b5b5f610e5686828701610deb565b9350506020610e6786828701610e1e565b9250506040610e7886828701610e1e565b9150509250925092565b610e8b81610dff565b82525050565b5f602082019050610ea45f830184610e82565b92915050565b5f60208284031215610ebf57610ebe610da1565b5b5f610ecc84828501610e1e565b91505092915050565b610ede81610dc4565b82525050565b5f8115159050919050565b610ef881610ee4565b82525050565b5f60a082019050610f115f830188610ed5565b610f1e6020830187610ed5565b610f2b6040830186610e82565b610f386060830185610e82565b610f456080830184610eef565b9695505050505050565b5f602082019050610f625f830184610ed5565b92915050565b5f60208284031215610f7d57610f7c610da1565b5b5f610f8a84828501610deb565b91505092915050565b5f5f60408385031215610fa957610fa8610da1565b5b5f610fb685828601610deb565b9250506020610fc785828601610e1e565b9150509250929050565b7f496e76616c696420746f6b656e206164647265737300000000000000000000005f82015250565b5f611005601583610d29565b915061101082610fd1565b602082019050919050565b5f6020820190508181035f83015261103281610ff9565b9050919050565b7f416d6f756e74206d757374206265203e203000000000000000000000000000005f82015250565b5f61106d601283610d29565b915061107882611039565b602082019050919050565b5f6020820190508181035f83015261109a81611061565b9050919050565b7f556e6c6f636b2074696d65206d75737420626520696e206675747572650000005f82015250565b5f6110d5601d83610d29565b91506110e0826110a1565b602082019050919050565b5f6020820190508181035f830152611102816110c9565b9050919050565b5f60608201905061111c5f830186610ed5565b6111296020830185610ed5565b6111366040830184610e82565b949350505050565b61114781610ee4565b8114611151575f5ffd5b50565b5f815190506111628161113e565b92915050565b5f6020828403121561117d5761117c610da1565b5b5f61118a84828501611154565b91505092915050565b7f546f6b656e207472616e73666572206661696c656400000000000000000000005f82015250565b5f6111c7601583610d29565b91506111d282611193565b602082019050919050565b5f6020820190508181035f8301526111f4816111bb565b9050919050565b5f60608201905061120e5f830186610ed5565b61121b6020830185610e82565b6112286040830184610e82565b949350505050565b7f5661756c7420646f6573206e6f742065786973740000000000000000000000005f82015250565b5f611264601483610d29565b915061126f82611230565b602082019050919050565b5f6020820190508181035f83015261129181611258565b9050919050565b7f4e6f74207661756c742063726561746f720000000000000000000000000000005f82015250565b5f6112cc601183610d29565b91506112d782611298565b602082019050919050565b5f6020820190508181035f8301526112f9816112c0565b9050919050565b7f546f6f206561726c7900000000000000000000000000000000000000000000005f82015250565b5f611334600983610d29565b915061133f82611300565b602082019050919050565b5f6020820190508181035f83015261136181611328565b9050919050565b7f416c72656164792077697468647261776e0000000000000000000000000000005f82015250565b5f61139c601183610d29565b91506113a782611368565b602082019050919050565b5f6020820190508181035f8301526113c981611390565b9050919050565b5f6040820190506113e35f830185610ed5565b6113f06020830184610e82565b9392505050565b7f4e6f2043454c4f2073656e7400000000000000000000000000000000000000005f82015250565b5f61142b600c83610d29565b9150611436826113f7565b602082019050919050565b5f6020820190508181035f8301526114588161141f565b9050919050565b7f4e487b71000000000000000000000000000000000000000000000000000000005f52603260045260245ffd5b7f4e487b71000000000000000000000000000000000000000000000000000000005f52601160045260245ffd5b5f6114c382610dff565b91507fffffffffffffffffffffffffffffffffffffffffffffffffffffffffffffffff82036114f5576114f461148c565b5b60018201905091905056fea264697066735822122039863cb991acea51dca3b34268209a88148034cc81e76ffbdedcbea2b3e6b09d64736f6c634300081e0033","linkReferences":{}},"methodIdentifiers":{"createVaultCelo(uint256)":"980ed891","createVaultERC20(address,uint256,uint256)":"0503669b","getVault(uint256)":"9403b634","owner()":"8da5cb5b","userVaults(address,uint256)":"9c841fef","userVaultsLength(address)":"8ee95bec","vaults(uint256)":"8c64ea4a","withdraw(uint256)":"2e1a7d4d"},"id":21}